:020000040800F2
:100000000000012025110008AD0C0008AF0C00080D
:10001000B10C0008B30C0008B50C0008000000008B
:10002000000000000000000000000000B70C000805
:10003000B90C000800000000BB0C0008BD0C000853
:100040007511000875110008C10C00087511000831
:100050007511000875110008CD0C0008D30C0008BC
:100060007511000875110008751100087511000858
:10007000D90C0008751100087511000875110008E9
:100080007511000875110008751100087511000838
:1000900000000000751100087511000875110008B6
:1000A0007511000875110008751100087511000818
:1000B0007511000875110008751100087511000808
:1000C00075110008751100087511000875110008F8
:1000D000E50C00087511000875110008751100087D
:1000E00075110008F10C0008090D000875110008D1
:1000F00075110008000000000000000075110008E4
:100100007511000875110008150D0008751100081B
:1001100075110008751100087511000875110008A7
:100120007511000875110008751100087511000897
:080130007511000875110008AB
:1001400010B5054C237833B9044B13B10448AFF311
:1001500000800123237010BD780000200000000003
:1001600080DB000808B5034B1BB103490348AFF31C
:10017000008008BD000000007C00002080DB00083B
:1001800010F8012B11F8013B012A28BF9A42F7D041
:10019000D01A7047034613F8012B002AFBD1181A16
:1001A000013870470000000000000000000000005F
:1001B00001F0FF01102A2BDB10F0070F08D010F818
:1001C000013B013A8B422DD010F0070F42B3F6D11C
:1001D000F0B441EA012141EA014122F007047FF035
:1001E00000070023F0E80256083C85EA010586EA8C
:1001F000010685FA47F5A3FA87F586FA47F6A5FAC8
:1002000087F68EB9EED1F0BC01F0FF0102F00702D3
:1002100032B110F8013B013A83EA010313B1F8D17E
:100220000020704701387047002D06BF354603385F
:10023000073815F0010F07D1013015F4807F02BF98
:10024000013015F4C03F0130F0BC0138704700BFE9
:1002500053B94AB9002908BF00281CBF4FF0FF312D
:100260004FF0FF3000F088B9ADF1080C6DE904CE15
:1002700000F006F8DDF804E0DDE9022304B0704781
:100280002DE9F047089D8E4604468846002B4AD14A
:100290008A42174662D9B2FA82F64EB1C6F12003FD
:1002A00001FA06F820FA03F3B74043EA0808B4401D
:1002B0004FEA174E1FFA87FCB8FBFEF1230C0EFB2A
:1002C000118843EA084301FB0CF29A4209D9FB1852
:1002D00001F1FF3080F0EA809A4240F2E780023973
:1002E0003B449A1AA3B2B2FBFEF00EFB102243EA83
:1002F000024300FB0CFC9C4509D9FB1800F1FF32BE
:1003000080F0D6809C4540F2D3803B44023840EADE
:100310000140A3EB0C0300211DB1F3400022C5E90D
:100320000032BDE8F0878B4205D90DB1C5E9000167
:1003300000210846F5E7B3FA83F1002946D1734559
:1003400002D3824200F20581841A6EEB030201207F
:100350009046002DE5D0C5E90048E2E7002A00F00C
:100360009080B2FA82F6002E40F0A4808A1A030C24
:100370004FEA174E80B2BCB20121B2FBFEFC0EFB6D
:100380001C2243EA024304FB0CF29A4207D9FB18F1
:100390000CF1FF3802D29A4200F2E080C4469B1A68
:1003A000B3FBFEF20EFB123340EA034302FB04F4FC
:1003B0009C4207D9FB1802F1FF3002D29C4200F2A6
:1003C000CA8002461B1B42EA0C40A5E7C1F1200689
:1003D0008B4022FA06F71F430EFA01F420FA06F3C7
:1003E0002EFA06FE4FEA1749234300FA01F81FFAD6
:1003F00087FCBEFBF9F01C0C09FB10EE44EA0E442E
:1004000000FB0CFEA64502FA01F209D93C1900F1E5
:10041000FF3A80F09C80A64540F2998002383C4427
:10042000A4EB0E041FFA83FEB4FBF9F309FB13449B
:100430004EEA044403FB0CFCA44508D93C1903F123
:10044000FF3E80F08280A4457FD9023B3C4443EAD2
:100450000040A4EB0C04A0FB02EC64457346E146AB
:1004600062D35FD05DB1B8EB030264EB090404FA18
:1004700006F622FA01F31E43CC40C5E900640021D0
:100480004FE7B1FBF2FC010C41EA0E4180B240EAB9
:1004900001423B4638463C46B846BE462026B1FBA4
:1004A000F7F1A2EB080241EA0C4166E7014618E7C2
:1004B00010462CE7C6F120022EFA02F3B740B140F5
:1004C00020FA02F24FEA174E0A43B3FBFEF8BCB221
:1004D0000EFB1833110C41EA034108FB04F9B0404C
:1004E00089454FEA104380B23ED9791808F1FF3CA4
:1004F00001D289451FD8A1EB0901B1FBFEF909FB27
:1005000004F80EFB191192B242EA0142424529D287
:10051000BA1809F1FF31C4D24245C2D2A9F1020191
:100520003A44BEE7F0459DD2BEEB02036CEB070CEC
:100530000138E14696E7A7EB09094944A8F1020C06
:10054000B1FBFEF909FB04F8DBE773467FE7504691
:1005500066E70846FDE63B44023A33E7ACF1020C9D
:100560003B441CE749469CE7A1EB0901C446B1FBAB
:10057000FEF909FB04F8C4E7704700BF4FF0B04331
:1005800082B0DA6C0243DA64DB6C03400193019BB6
:1005900002B0704700B59BB04822002108A80CF0BB
:1005A000E1F91822002102A80CF0DCF906F036FA75
:1005B0004FF0B0428121D2F8903023F01803C2F8F6
:1005C0009030D2F8003423F4C06343F48063C2F85F
:1005D0000034D2F8003403F4C0630193019B262356
:1005E00008934FF48073CDE90B130123109340233C
:1005F0000D938022002308A8CDE91132139306F051
:1006000093FB014608B172B6FEE74F23CDE90230F5
:10061000CDE90400CDE9060002A806F01FFE08B1EE
:1006200072B6FEE71BB05DF804FB00001148124AE9
:1006300008B54FF41013C0E9002301210023042260
:10064000C0E90233C0E90933C0E90C3203614261F9
:1006500003838376C16180F8203080F82C30826378
:1006600080F83C30C36405F0BBF808B172B6FEE711
:1006700008BD00BF300200200024014030B58DB01D
:10068000184C2C22002101A80CF06CF9164B2360A9
:100690001F23A3604FF0804200234FF48075204653
:1006A000C4E90433C4E90723A361656207F07CF859
:1006B00008B172B6FEE7204607F0A8F9024608B175
:1006C00072B6FEE70890029006904FF0005301A921
:1006D000204607930B9507F0CDF808B172B6FEE7F8
:1006E0000DB030BDF8010020002800401048114A2C
:1006F00008B54FF48273C0E9002300234FF4E06291
:10070000C0E902324FF400711822C0E90612072234
:10071000C0E90433C0E90833C0E90B23836208232E
:10072000436307F093FB08B172B6FEE708BD00BF54
:100730009401002000300140044808B50023036004
:1007400008F0F0F808B172B6FEE708BD8801002095
:1007500010B5194A194C4FF41653C4E9002300236D
:100760000C22C4E90233C4E90523C4E90733236139
:1007700063623023A3624FF480504FF40053C4E906
:100780000F03204609F018FB014608B172B6FEE7D8
:10079000204609F089FC014608B172B6FEE7204602
:1007A00009F0A2FC08B172B6FEE7204609F061FC30
:1007B00008B172B6FEE710BD00380140F400002019
:1007C0004FF0B04307B59A6C42F004029A649A6CF9
:1007D00002F004020192019A9A6C42F001029A64BA
:1007E0009B6C002203F00103009311460C20009B38
:1007F00005F04CFC0C2003B05DF804EB05F078BC70
:100800002DE9F04186B01422002101A80CF0AAF8CD
:100810000220FFF7B3FE0120FFF7B0FE4C4EDFF8D9
:1008200034818020FFF7AAFE0420FFF7A7FE4FF4D3
:1008300080713046012206F0DFF800224FF4F87193
:100840004FF0904006F0D8F8304601224FF4805126
:1008500006F0D2F8002240464FF40051002406F082
:10086000CBF801254FF4885301A93046CDE9013575
:10087000CDE9034405F09AFF4FF4881301A94FF026
:100880009040CDE90235019505F090FF49F2020252
:100890004FF4041301A94FF09040CDE90123032741
:1008A000039505F083FF40F60C4301A94FF09040FB
:1008B000CDE90137039405F079FF4FF4F87301A9EE
:1008C0004FF09040CDE90135CDE9034405F06EFFCE
:1008D0004FF4007301A94FF09040CDE90134039526
:1008E00005F064FF082301A91B480394CDE90137F3
:1008F00005F05CFF04230DEB03013046CDE9013721
:10090000039405F053FF4FF4005301A94046CDE98D
:100910000135CDE9034405F049FF22462146062072
:1009200005F0B4FB062005F0E3FB22462146072034
:1009300005F0ACFB072005F0DBFB22462146292011
:1009400005F0A4FB292005F0D3FB06B0BDE8F0813B
:100950000004004800080048001C004808B504F0E6
:10096000F3FEFFF717FEFFF74BFFFFF729FFFFF737
:10097000BDFE0BF085FAFFF759FE034805F09CFC1D
:100980000BF087FAFCE700BF9400002072B6FEE788
:100990007047000010B503F043FF00BF04F0F6FEFF
:1009A0000B4B0C4C4FF000725A604FF000625A60D3
:1009B0000723A361202006F061F80120C4F8880015
:1009C000BFF34F8FBFF36F8FBDE8104006F08CB8B8
:1009D00000ED00E00004005804F0DFBE08B500BFE1
:1009E000FFF7D8FD04F0D9FEBDE8084004F032B8A6
:1009F00008B504F0CBFEBDE808400121002006F058
:100A000015B870474FF0B04382B01A6E02431A66B1
:100A10001B6E03400193019B02B0704770470000BA
:100A200010B504468EB03822002168460BF09AFFBC
:100A300022680A4B9A420FD14FF4804300936846D4
:100A40004FF080530B9306F02DFD08B1FFF79EFF8A
:100A50004FF40070FFF7D6FF0EB010BD0024014028
:100A60000268054B9A4201BF4FF0B042136E23F467
:100A700000731366704700BF0024014010B50446A0
:100A800090B03822002102A80BF06CFF2268194BAD
:100A90009A422CD14FF48033029302A84FF4807312
:100AA0000F9306F0FFFC08B1FFF770FF4FF0B04363
:100AB0000220D3F8902042F40042C3F890209A6DAF
:100AC00042F480629A659B6D002203F480631146B4
:100AD0000193019B05F0DAFA022005F009FB0022E0
:100AE0002A20114605F0D2FA2A2005F001FB10B0A9
:100AF00010BD00BF0028004010B5044686B0142287
:100B0000002101A80BF02EFF2268104B9A421BD146
:100B10004FF48050FFF776FF4FF0B0430C48DA6C8B
:100B200042F00202DA64DB6C03F002030093009BE4
:100B300038220223CDE901230023CDE9033301A9A3
:100B40000523059305F032FE06B010BD00300140CC
:100B5000000400480268074B9A4209D14FF0B042A6
:100B60000548136E23F480531366382105F0CABE7E
:100B7000704700BF00300140000400484FF0B04310
:100B800007B55A6E42F001025A665B6E002203F00E
:100B90000103019311463220019B05F077FA3220C0
:100BA00003B05DF804EB05F0A3BA000070B594B093
:100BB00006461422002101A80BF0D4FE38220021A1
:100BC00006A80BF0CFFE3268244B9A4243D1244B47
:100BD0000120CDE9060306A806F064FC08B1FFF782
:100BE000D5FE4FF48040FFF70DFF4FF0B0430025D6
:100BF000DA6C1C481C4C42F00202DA64DB6C03F035
:100C000002030093009BC0220223CDE9012301A926
:100C100007230593CDE9035505F0C8FD1349256267
:100C20001223C4E900131023C4E9023520468023AF
:100C3000C4E90435C4E9065505F0CEFA08B1FFF75A
:100C4000A5FE00222420F4671146A66205F01EFAD4
:100C5000242005F04DFA14B070BD00BF00380140EB
:100C60000200030000040048940000201C00024021
:100C700002680C4B9A4210B5044611D14FF0B042B5
:100C80000948136E23F480431366C02105F03AFE31
:100C9000E06F05F011FBBDE81040242005F036BAE6
:100CA00010BD00BF0038014000040048FEE7FEE729
:100CB000FEE7FEE7FEE770477047704704F05ABD55
:100CC000014806F0C9BE00BFF8010020012005F070
:100CD00099BE022005F096BE014805F0F1BB00BFA9
:100CE00094000020014808F025BA00BFF40000205D
:100CF00008B54FF4805005F085FEBDE808404FF47C
:100D0000004005F07FBE0000014806F0D3BC00BFE4
:100D1000F8010020014807F0E4BF00BF880100206F
:100D20000CB407B5054A05AB102101930BF0D2F9BD
:100D300003B05DF804EB02B0704700BFD8DB0008D9
:100D400030B585B0044602A80D460BF09DF9BDF9FB
:100D50000C30064A00931021029B2046FFF7E0FF6B
:100D60002046FFF717FA288005B030BDD8DB000811
:100D70004FF0B04210B5936823F4004393600BF03A
:100D800099FB0A4B01241C7000F028F80BF004FDBD
:100D900007480BF01BFD02200BF01EFD0BF00CF9B9
:100DA00021462046BDE810400BF026B994020020F1
:100DB000410D00080BF036B9002102200BF006B9F6
:100DC000024B187808B100F06BB87047940200200D
:100DD00082B00190019802B000F00CB908B504F09F
:100DE000E3FC04F0E9FCBDE8084004F0EDBC0000C1
:100DF0000B4A116810B5034609B90A491160106819
:100E000009490A4C0344091B8B4206D90BF0C4FD67
:100E10000C2303604FF0FF3010BD1360FCE700BFF0
:100E200098020020180D0020000001200010000092
:100E300070470000014B1868704700BF9C020020FB
:100E40000320704708B501464FF47A7200238002F0
:100E5000890DFFF7FDF908BD4FF47A73A0FB03037A
:100E6000800A40EA83507047034B98689A68904222
:100E7000FBD1C043704700BF0028004008B5FFF712
:100E8000F3FF014B186008BD9C02002008B5FFF776
:100E9000EBFF024B1B68C01A08BD00BF9C0200207C
:100EA000024B187808B1FFF7DFBF7047A00200209F
:100EB00010B5074C4FF48071204606F0C1FB4FF08F
:100EC000FF332363034B0122DA65002010BD00BF0E
:100ED000F80100200028004002460021014806F0E9
:100EE000CCBD00BFF801002002460121014806F0F8
:100EF000C4BD00BFF801002010B58CB02C22002129
:100F0000044601A80BF02EFDFFF7D2FF0C4B0D4855
:100F10001B681C440023089306934FF00053E443DE
:100F2000079301224FF4807301A902940B9306F0FA
:100F3000A1FC08B1FFF72AFD00200CB010BD00BFD6
:100F40009C020020F801002038B50546FFF78CFF11
:100F500002210446074806F097FDC4F309024FF446
:100F60007A71A2FB0121920AA30A2A8043EA8050E7
:100F700038BD00BFF80100200148002106F084BD03
:100F8000F80100200148012106F07EBDF801002093
:100F90002DE9F041114D2F78EFB9114C4FF0FF388A
:100FA000C4F83080FFF76AFBFFF782FF4FF48071CF
:100FB000204606F045FB0B4B0126DE652046C4F8B3
:100FC000308006F005FD3A462046022106F055FD28
:100FD000FFF754FF2E700020BDE8F081A002002032
:100FE000F801002000280040014B0122DA6570471B
:100FF00000280040014610B54FF47A7200238002A9
:10100000890DFFF725F90146FFF72EFF0446FFF78C
:101010002BFF031B8B4200D310BD00BFF7E700007E
:10102000024B0122DA650BF067BB00BF00280040CD
:1010300010B5064C0221204606F026FD0221421C76
:101040002046BDE8104006F018BD00BFF8010020A2
:1010500008B50A460146024807F066FF002008BDB1
:10106000F400002013B54FF400130F4C009302ABB3
:1010700013E90600204608F0A0FF2368DA69D103CF
:10108000FCD4DA695202FCD59A68074842F480021F
:101090009A6008F0D8FF05490348012208F046FF8E
:1010A000002002B010BD00BFF4000020A802002004
:1010B00008B5074B1860FFF783FBFFF749FB054AAC
:1010C000D2F8803043F08063C2F88030002008BD41
:1010D000A40200200008005808B54FF0B0430848AB
:1010E0001A6C42F480421A641A6C22F480421A6428
:1010F000FFF7BEFD0F2005F009F8002008BD00BF76
:10110000F40000200268044B9A4203D1034B0020F4
:101110001B681847704700BF00380140A402002038
:1011200004F088BA0D488546FFF782FE0C480D4949
:101130000D4A002302E0D458C4500433C4188C4232
:10114000F9D30A4A0A4C002301E013600432A24298
:10115000FBD30BF027FCFFF701FCFEE700000120AA
:10116000000000207400002028E200087800002021
:10117000140D0020FEE70000B0F5804F084BA8BF1B
:101180004FF480409842B8BF184600F580404CF2BA
:101190004F33584300F58040C00B013080B2704798
:1011A00000C0FFFF044BD86828B1986A18B1D86A0C
:1011B000003818BF01207047C8DF0008024A00232A
:1011C0001370024A13607047C4020020C00200205E
:1011D000B0F90230013309D0B0F90430013305D041
:1011E000B0F90600013018BF012070470020704799
:1011F00008B50246FFF7ECFF08B901F006011089B7
:101200004FF6FF739842D36808BF01F0FD01013328
:1012100008BF01F0FB01084608BD38B514461D465D
:1012200064220023FFF714F8002A18BF013024B904
:1012300028446423A0FB030138BDB0FBF4F104FB98
:101240001101A9428BBF641940192418401A88BFA4
:10125000601A6421A0FB0101EEE70000034A137845
:10126000042B9CBF01331370704700BFBC020020E9
:1012700008B503F087F8838B44F601529A1A53425B
:101280005341014A137008BD3C03002008B503F028
:1012900079F8808B44F60253C31A5842584108BD6E
:1012A00010B5FFF7F3FF00280CBF4FF47A744FF42A
:1012B000FA74FFF7EBFF40F2DC5240F6C41300284B
:1012C00018BF1346044A12784FF4FA7101FB02402A
:1012D000984228BF184610BD3903002008B5054BB9
:1012E0001B780BB1142008BDFFF7D0FF0028F9D1FF
:1012F0003C20F8E73C03002008B502F0A1FC18B13F
:10130000BDE8084002F0AEBC08BD000008B5064AC2
:101310000648136823F0120313600BF04DF9BDE883
:10132000084003480BF048B940030020EC030020BC
:10133000D403002008B507480BF03EF906480BF02F
:101340003BF906480BF038F9BDE8084004480BF0BB
:1013500033B900BFBC030020A40300208C0300208D
:10136000D403002010B5074C20460BF025F9204689
:101370004FF47A610BF0A8F92046BDE810400BF05D
:1013800069B900BF8C03002038B5037845788478AC
:10139000A3F13002092A07D8A5F13002092A03D89F
:1013A0004D2C07D0482C05D04821002003F0A8F888
:1013B00000240FE003EB8303103D05EB4305EDB282
:1013C0002146284603F09CF8012DF1D1A4F14D03EC
:1013D0005C425C41014B1C7038BD00BF3C030020E7
:1013E000044A1368002143F48073012013600AF05B
:1013F00095BF00BF40030020044A1368002143F05A
:101400004003012013600AF089BF00BF40030020A1
:10141000044A1368002143F02003012013600AF0FE
:101420007DBF00BF40030020044A1368002143F041
:101430000803012013600AF071BF00BF40030020C1
:10144000044A1368002143F00403012013600AF0EA
:1014500065BF00BF40030020044A1368002143F029
:101460001003012013600AF059BF00BF40030020A1
:10147000044A1368002143F00203012013600AF0BC
:101480004DBF00BF40030020044A1368002143F011
:101490000103012013600AF041BF00BF4003002098
:1014A00000B589B00DF10703ADF80410090C8DF8F3
:1014B0000610009002F1180152F8040B43F8040BD7
:1014C0008A42F9D14FF6FF721F21684603F0D4F823
:1014D00009B05DF804FB00002DE9F843DFF86090E7
:1014E00099F8003004460E461BB100252846BDE899
:1014F000F883144BD3F80C80B8F1000FF5D05F6B74
:10150000002FF2D0DB6A002BEFD0232003F056FD32
:1015100005460028E9D0012C38BF01240AF0F2FF6B
:10152000094B20441860094B1E7003F061F9012338
:1015300089F8003003F06EFDC0472046B847D5E774
:101540001D040020C8DF0008AC020020AB02002010
:1015500038B50D4B1C780D4B1D680AF0D3FF281AC7
:1015600013280FDD3CB90A4B1B784BB9094B1C788B
:10157000042C18BF02242146BDE83840FFF7ACBF59
:101580000124F8E7002038BDAB020020AC020020A7
:10159000B90200203B03002008B5064B1B783BB97D
:1015A000FFF774FE002814BF78204FF4967008BD32
:1015B0003C20FCE73C03002008B5FFF7EDFF074B9C
:1015C000074A1B78002808BF4FF49670052B28BFE8
:1015D000052332F81330584308BD00BFBC02002079
:1015E0003CDF0008164B1B7810B513BB154B1B785E
:1015F000042B03D1BDE81040FFF7DEBF02F0C2FEAE
:10160000037FC3B1427F4D2A06D0482A4FF4616060
:101610000ED100FB03F402E0C3EB03139C00FFF7C1
:1016200035FE58B9B4F5967F204638BF4FF4967012
:1016300010BD3C20FCE74FF46160F9E77820F7E744
:101640003C0300203B0300202DE9F0470746894674
:101650009046FFF7A1FF60B1144B1C681CB36425D2
:10166000A4FB054AA74279EB0A0304D2C8E9004A61
:101670000120BDE8F087A0FB0565381B32462B46EC
:1016800069EB0A01FEF7E4FD013041F10001454339
:1016900006FB0155A0FB06060019354445EB0A057B
:1016A000C8E90005E4E72046E3E700BF3403002073
:1016B00010B5044602F0C4FA38B922462021BDE82C
:1016C00010404FF0904005F097B910BD0020FFF793
:1016D000EFBF10B5044602F0B3FA28B92246102134
:1016E0004FF0904005F088F954B102F0A9FA48B9DA
:1016F0000122BDE8104020214FF0904005F07CB958
:101700002246F6E710BD000010B5064B064800243F
:101710001C70064B1C700AF04FFF2046BDE81040BD
:10172000FFF7D7BFB10200205C030020B002002009
:101730000A4B10B501200A4C18700A4B1870FFF7BD
:10174000C8FF20460AF038FF204614210AF0BCFFEB
:101750002046BDE810400AF07DBF00BFB102002066
:101760005C030020B002002010B5037804464BB1A2
:1017700002F066FA30B1FFF7BFFD2046BDE8104029
:1017800003F0AABF10BD00000E4B1B7810B5C3B10B
:101790000D4C207880F001002070FFF79AFF23782D
:1017A0000A48002B0CBF4FF4F07414240AF004FF15
:1017B000214606480AF088FFBDE8104003480AF0B9
:1017C00049BF10BDB1020020B00200205C03002020
:1017D00008B5084B1A68D2050BD41B684BB902F048
:1017E0002FFA30B9044B1B781BB9BDE80840FFF74E
:1017F000F7BD08BD400300201D040020104B10B5AC
:1018000000241C700F4B1C700F4B1C70FFF77CFFEB
:101810000E4B0F481C700F4B1C600F4B1C700F4B76
:101820001C700F4B1C700F4B1C700AF0C5FEFFF7AD
:101830006DFDFFF77FFDBDE81040FFF7C9BF00BF9A
:101840003B0300203A03002021030020B9020020BE
:1018500004040020B4020020B80200203803002055
:10186000AA020020A902002038B5FFF7A5FE094C06
:10187000054620460AF0A0FE4FF47A7169432046DF
:101880000AF022FF20460AF0E5FEBDE83840FFF7E7
:101890009FBF00BFEC030020F8B505460C4603F0DF
:1018A00007FD06460F468DB300236422FEF7D0FCE9
:1018B000002284428CBF1346001B4FF0640198BF86
:1018C000B0FBF5F3E3FB0542A4FB0143C83401FB85
:1018D000023343F10003A64277EB030316D2A41BA5
:1018E0000A235C43142C11D909480AF065FEA4F1BF
:1018F0001401142928BF142105480AF0E5FE044804
:101900000AF0A8FEFFF764FF0120F8BD0020FCE705
:10191000A4030020044B1B681BB1002101200AF026
:10192000FDBCFFF755BF00BF4003002010B5124CAF
:101930002378022B12D111480AF03EFE03F064FB1B
:101940000F4BDB6A03B19847002323700D4B4FF018
:10195000FF321A60BDE8104002F054BF012B0AD1DB
:10196000074BDB6A03B19847074A00231370074A05
:1019700023701360EEE710BD1D0400208C030020CF
:10198000C8DF000808000020AB020020AC020020E5
:101990002DE9F843304B1C782CB9FFF7CBFC2F4BCB
:1019A0001C70BDE8F883FFF763FC02F0EBFC2C4BE6
:1019B000847E1B780BB1092CF3D8FFF767FC08B1C4
:1019C000092CEED803F074FC0F460646FFF70AFE1A
:1019D0008146FFF783FC0546FFF758FC06234A467D
:1019E00030463946FFF719FC05EB440588460446A6
:1019F0002B464A4630463946FFF70FFCA64277EBA6
:101A00000808034624D2A41B0A2202FB04F59E42C6
:101A100077EB01011ED29B1B0A2202FB03F4114843
:101A20000AF0CAFD29460F480AF04EFE0D480AF09A
:101A300011FE0D480AF0C0FD04F128010A480AF021
:101A400043FE09480AF006FEBDE8F843FFF7C0BEB2
:101A50000125DCE70124E2E73A030020210300200E
:101A60003C030020BC030020A403002038B51D4B1C
:101A70001D4D1A78042A1EBF1C4A00211170042231
:101A80001A7003F04BFC1A4B287000241C70194B81
:101A90001C70194B1C60FFF737FE184B1C70184B5D
:101AA0001C70184B1C70184B1A780AB901221A7056
:101AB00016480AF081FD02F0C3F840B1144B1B78C0
:101AC0002BB9FFF723FCBDE83840FFF733BC2B7878
:101AD0002BB1FFF75DFFBDE83840FFF7C5BEFFF74C
:101AE00029FCF8E73B0300203A030020BC02002059
:101AF00021030020B9020020B40200203803002096
:101B0000AA020020A902002039030020D4030020EB
:101B1000BD02002070B51C4E33787BB91B4C237876
:101B2000013B022B0AD81A4D2B78F92B07D8013329
:101B3000DBB2082B2B7002D80223237070BD03F098
:101B4000EDFBC0B1134B1B68ABB12B78182B12D82F
:101B50002378032B13D1032323700F4B01221A7018
:101B60000E4B00241C700E4B34701C60FFF7CCFD34
:101B70000C4B1C70E2E7BDE87040FFF777BF0A4BE3
:101B800000221A70E7E700BFB90200203B030020E3
:101B900039030020340300203A03002021030020F1
:101BA000B4020020AA020020380300200023C0F85D
:101BB0000A306FF4FE424FF0FF33C0E90023038187
:101BC000C360704708B510490B78FF2B024618D147
:101BD00091F90130803314D1D00703D50846FFF7BF
:101BE000F7FA68B9930704D508894FF6FF7398424E
:101BF00007D112F0040003D0C868013018BF0120DB
:101C000008BD0120FCE700BF240300202DE9F04FB0
:101C10009BB00C4616460193054628B94FF00008C4
:101C200040461BB0BDE8F08FC77E152200210DF1A4
:101C300023000AF097FEAB7E8DF808300DF1090302
:101C400007F0070B05F118029A4655F8041B43F8F4
:101C5000041B9542F9D123788DF8213017F0010546
:101C600063788DF82230ADF8246015D02046FFF758
:101C7000AFFA88B1B4F90200FFF77EFAADF826009A
:101C8000B4F90400FFF778FAADF82800B4F90600BB
:101C9000FFF772FAADF82A0017F002060ED021897C
:101CA0004FF6FF72914209D04EF65F2047F6FF7360
:101CB00000FB0133B3FBF2F3ADF82C3017F0040353
:101CC0000093594614BFE3684FF0FF3320460C934E
:101CD000FFF78EFA2C228DF83400002155480AF0C7
:101CE00041FE544802A902F0C8FF431EDBB22B2B71
:101CF000814693D8302200210EA80AF033FE4D48C9
:101D00000EAA494603F069F88046002886D09DF85F
:101D100008209DF838309A4280D118220DF13901FF
:101D200050460AF00FFE089B149A534023F07F435D
:101D300023F0FF0303437FF471AF099A159B9A4286
:101D40007FF46CAF0A9A169B9A427FF467AFBDF896
:101D50005C10BDF82C308B427FF460AF189F0C9A5A
:101D6000BA427FF45BAF9DF864A09DF834205245E1
:101D70007FF454AF2088BDF8512090427FF44EAFDD
:101D8000002D50D02046FFF723FA00284CD0B4F99C
:101D90000200FFF7F1F90546B4F90400FFF7ECF98A
:101DA0000246B4F90600FFF7E7F9BDF856C0AC45A6
:101DB0007FF434AFBDF8585095427FF42FAFBDF893
:101DC0005A2082427FF42AAF7EB120894FF6FF72FB
:101DD00090421DBF47F6FF764EF65F2505FB006675
:101DE00000261CBFB6FBF2F6B6B2B1427FF416AFC6
:101DF000009BE3B1E26897427FF410AF594620465A
:101E0000FFF7F6F982457FF409AF019B249D83F823
:101E100000900EAC0FCC0FC50FCC0FC594E80F008F
:101E200085E80F00FCE6284602460546BDE7013777
:101E3000E2E700BFF40200200B78FF2B10B518BFBB
:101E4000037091F9013013F1800F18BF4370D3076D
:101E500004461CD50846FFF7BBF940B1B1F9023082
:101E60006380B1F90430A380B1F90630E38012F049
:101E7000020F4FF6FF7311D00889984200D02081DD
:101E800050070DD5CB685A1C00D0E36010BD4FF64B
:101E9000FF7343804FF0FF334360E8E72381EFE7B0
:101EA0004FF0FF33F1E700002DE9F74301F0C8FEE2
:101EB00048B1684B1B7833B9FFF728FA03B0BDE887
:101EC000F043FFF737BA644F3B784BB3634D2C6850
:101ED0000AF018FB201A002816DD41F270739842B0
:101EE00028BF18465E4B1B7804460BB9FFF720FC51
:101EF00001212046FFF7F0FA002840F0A88003B047
:101F0000BDE8F04300F044B9FFF7FEFB00233B704F
:101F10002B6000F0B7F803B0BDE8F043FFF760BAFC
:101F200003F0FCF9064680B9FFF79EFC4D4B1B7889
:101F3000002B00F089804C480AF03EFBFFF728FD9B
:101F400003B0BDE8F043FFF743BCDFF8208103F0A6
:101F5000AFF998F80030042B04460D46E4D0032B6B
:101F600038D100220023CDE900236A46FFF76CFB3D
:101F700058B33F4B3F4A1B7803F00703642032F904
:101F80001310DDE90032C0FB01329C4275EB020107
:101F900002DB631C45F100029C4275EB02024FF02C
:101FA0000A0115D21B1B01FB03F4012C38BF0124CD
:101FB00031480AF001FB21462F480AF085FB2E48E4
:101FC0000AF048FBFFF704FCB0E7FFF74FFDADE771
:101FD0000C46EDE7FFF7E0FA6A46814629462046BF
:101FE000FFF732FB034630B94A4620462946FFF741
:101FF00014F9CDE90001397861B998F80030042B63
:1020000008D01E4A13780133DBB20B2B9ABF137032
:102010000E461170009B019A194F9C4275EB02020B
:102020003E700FD21B1B0A2202FB03F4FFF738F9A4
:102030003B7813B100F58C50143084428CBF241AC5
:102040000124B5E70123EEE7FFF774F978E703B061
:10205000BDE8F083BD020020B9020020B4020020D8
:10206000B10200203A030020D40300203B030020EB
:10207000380300202CDF0008EC030020A902002018
:10208000AA020020F7B502F07DF9074603F046F9F1
:1020900000284CD03248082105F0F6FC314B98421C
:1020A00045D109212E4805F0EFFC0A2106462C48AF
:1020B00005F0EAFC0B210446294805F0E5FCA4F1F3
:1020C0003001C9B2C4F3074309290546C4F3072206
:1020D000ADF804408DF8063029D8303A092A26D8C0
:1020E0004D2B01D0482B22D13A4621463046FFF7EE
:1020F000D7F9ADB285421AD101A8FFF745F91A4BBD
:102100001E601A4B02221A70194A00231370194AD2
:1021100001211170184A1370184A107800B9117013
:10212000174A137003B0BDE8F040FFF7BDBE03F0DF
:10213000F5F820B903B0BDE8F040FFF75FBB0B4BEB
:1021400002221A700B4B0C4A0121197000231370E4
:10215000074A13700B4A13700B4A13700B4ADAE7E5
:10216000F80100205953444E340300203B03002063
:10217000380300203A030020210300203903002007
:10218000BC020020B8020020AA020020A902002000
:102190000E4B10B51C680AF0B5F9241A002C03DCAC
:1021A000BDE81040FFF780BE09480AF005FA642C2C
:1021B0002146074828BF64210AF086FA04480AF03D
:1021C00049FABDE81040FFF703BB00BFB40200208E
:1021D00004040020124A002310B51370114A137032
:1021E000114A1370114A1370114A1370114B0124D4
:1021F0001C700AF087F9104B00F5AF2000F5C8609D
:102200001860FFF797F8FFF793FA214641F27070D4
:10221000FFF762F918B9BDE81040FFF7B9BF10BD6C
:102220003B0300203A030020210300203803002054
:10223000B8020020B9020020B402002008B5134BF8
:1022400000221A7001F0FCFC114B08B9187008BD8F
:1022500001221A700F4B1B78002BF8D10E4B1B7804
:10226000042B03D1BDE80840FFF700BC53B903F0CD
:1022700055F818B1BDE80840FFF704BFBDE80840B5
:10228000FFF7A8BFBDE80840FFF70EBEB802002068
:10229000BD0200201D0400203B03002008B5FFF70D
:1022A00035F8FFF701FE074B1B7833B106480AF0FB
:1022B00083F9BDE80840FFF76BBBBDE80840FFF7B6
:1022C00039B800BF3A030020D403002008B50B48FA
:1022D0000AF072F902F098FE094BDB6A03B19847E5
:1022E000084B00221A70084B4FF0FF321A6002F0C0
:1022F00089FABDE80840FFF7D1BF00BF8C0300207A
:10230000C8DF00081D04002008000020F0B50120EF
:10231000BBB0FFF7CDF901F093FC08B101F0A2FCCE
:1023200002F030F8404B1A7832B928B13F4A017FA9
:1023300011703F4A417F117001243E481C700AF021
:102340003BF93D493B480AF0BFF93A480AF082F9A7
:102350002046482102F0D4F8FEF78AFF374A384B6E
:102360001C701368002143F002032046136009F03B
:10237000D5FF02F007F8C17E06A801F0E7F8044691
:10238000002843D001F05CFC00283FD006A8FEF7EF
:102390001FFF0246002841D0BDF91A00FEF7ECFEEF
:1023A0000546BDF91C00FEF7E7FE0646BDF91E0016
:1023B000FEF7E2FE0246BDF820004FF6FF7398429A
:1023C0001EBF47F6FF714EF65F2707FB00119DF811
:1023D000180016BFB1FBF3F1002189B2FF2820D00D
:1023E000184B194F012808BF3B4609980195CDE9C4
:1023F00002629DF919200092CDE90410134AC02110
:102400000AA80AF03BFA0AA803F066F901F018FCE2
:1024100008B9FFF74DF920463BB0F0BD064605462A
:10242000C9E70B4BE1E700BFBB020020BA02002066
:10243000040000204403002080EE3600400300200A
:10244000AA020020E5DB0008E1DB0008E9DB000868
:1024500034DE0008194B13B51C7834B301F0F0FBDF
:1024600048B300230193FEF7A9FE01F0E9FB88B110
:1024700001A801F091FBD8B1019BCBB1104A012119
:10248000117043F698200F4A9842136038BF1846DF
:1024900001F07AFBFEF730FF0B4A1368002143F08E
:1024A00080030120136009F039FF204602B010BDFF
:1024B00043F69820ECE7FEF781FEEBE71C040020D2
:1024C000C4020020C002002040030020174B10B5BA
:1024D0001C7814B90024204610BD01F0B1FB00287F
:1024E000F8D1134B134A1B7893B9134B1B78042B69
:1024F0000ED012490978012905D11149097801291D
:1025000006D0042904D011688907E3D0002BE1D15B
:10251000136823F4FD4323F03F031360FFF706FA2B
:10252000FFF76CF9FEF75CFFD5E700BF1C04002045
:10253000B9020020400300203B0300201D040020BE
:10254000AB02002038B5174B1B7853B3164D002053
:10255000FFF7BFF82B7813B1144B01221A70FFF765
:10256000D3F8FFF7E3F912480AF026F8114B0024DC
:102570001C602C70FEF7CAFEFEF7DCFE0E4A1368E4
:1025800023F4FF4323F03F0313600C4B1C700C4BF0
:102590001C700C4B1C700C4B1C70BDE83840FEF7D7
:1025A0000DBE38BD1C040020B9020020B802002076
:1025B00004040020B4020020400300202103002076
:1025C000C6020020C5020020BD0200201C4B1B7863
:1025D00010B5002B32D0FFF797F8FFF7A7F919488D
:1025E00009F0EAFF184B00241C70184B1C60FEF722
:1025F0008DFE174A136823F4FD4323F03F03136055
:10260000144B1C70144B1C70144B1C70144B1C701E
:10261000FEF7D4FD134B1A7822B11C70BDE81040B0
:10262000FFF7ECB8104B1B782BB9FFF72BFDBDE87B
:102630001040FFF7CDB8FFF737FCF8E710BD00BF3B
:102640001C04002004040020B9020020B402002071
:102650004003002021030020C6020020C502002004
:10266000BD020020B80200203B0300202DE9F04FFE
:10267000734B1B78A5B0002B00F09383714C01F0D5
:1026800015FB2568AE040DD52368012023F4005303
:102690002360FFF70DF83220FEF79AFB0020FFF7CA
:1026A00007F8256868040DD52368012023F48043CA
:1026B0002360FEF7FDFF3220FEF78AFB0020FEF7C5
:1026C000F7FF256815F4F05F3BD0A90506D5236810
:1026D0005D4823F400732360FFF746F86A0515D5BB
:1026E00023685A4823F480632360FFF73DF801F024
:1026F000A7FA38B1564B1B7823B1564B186808B16E
:1027000001F042FAFEF75AFDFFF798FD2B050AD5B6
:102710002368514823F400632360FFF725F8FEF790
:102720004DFDFFF78BFDEF040AD523684A4823F4DB
:1027300080532360FFF718F8FEF740FDFFF77EFD9A
:1027400025686E061DD5236823F040032360434BA4
:102750001A788AB1002242481A7009F02DFF414BC5
:102760001978414B187801F0CBFEFEF781FD3F4B05
:102770001B780BB9FFF798FB25B0BDE8F04FFFF7CA
:10278000C9B815F001060AD0236823F001032360BD
:10279000374B1B78002BEDD1FFF71CFDECE7A807AA
:1027A00046D52368334D23F00203236002F0B6FDC3
:1027B00048B904214FF4FA60FEF78EFE00232B7017
:1027C0000028D9D10AE02C4B1B78032B1BD1022106
:1027D00040F2DC50FEF780FE68B92870274809F007
:1027E000EBFE6421254809F06FFF244809F032FF11
:1027F000FEF7EEFFC0E7224A2E701378013303F094
:1028000007031370B8E7042BD3D0FEF749FD044645
:10281000FEF73CFD002841F2A86308BF4FF4AF5318
:10282000E0182B7813B100F58C5014300221C3E767
:10283000E90627D5236823F0100323609CE700BF37
:102840001C040020400300201EDC00081FDC0008E0
:10285000C4020020C002002024DC0008BB020020CB
:102860004403002004000020BA0200201D040020C0
:10287000B9020020AA0200203B030020EC03002044
:10288000380300202A0640F187802368914D23F009
:10289000800323602B78013B012B01D8FFF746F81A
:1028A0002E78002E56D101F06DFD0446002851D03F
:1028B0003022314618A80AF055F8AA238DF8603066
:1028C00020460DF1610304F1180250F8041B43F88F
:1028D000041B9042F9D1FF238DF8793080238DF8C5
:1028E0007A307D4B7D481B88ADF87C304FF0FF3748
:1028F00018A9229702F0C1F9C319DBB22B2B29D8F2
:10290000774EDFF8E0A13070FEF714FDFEF7FEFC15
:102910007548DFF8D88109F04FFE754B00241C7014
:10292000744B1C60FEF7F0FE734B88F800404FF0CC
:1029300001091C708AF80090FEF7DEFCFEF732FCFD
:102940006E4C78B902F060FBE36A03B1984700234C
:102950008AF800306A48FEF707FFFEF72FFCFFF702
:102960006DFC09E730780028ECD002F001FB00286C
:10297000E8D001F03DFF02232B70624B88F80090F5
:102980001F60FEF7EFFCE56802F044FBA847A36A6E
:10299000317852489847EFE615F4807029D02368C3
:1029A00023F480732360236833F480737FF4E4AEF0
:1029B00001F046F900287FF4DFAE464B1D78002D6C
:1029C0007FF4DAAE2368504823F48073236009F063
:1029D000F3FD2A4610214FF0904004F00DF82846F0
:1029E000FEF766FE454BDB6A03B1984702F0B8F884
:1029F000C2E615F020060BD0236823F020032360E5
:102A0000344B1B78022B7FF4B7AEFFF75FFCB3E6C5
:102A100015F00403039300F08180236823F004037E
:102A200023603A4B1B7813B9334A1370A4E602F0C3
:102A30006DFC0446FEF7D6FD0546FEF727FC002D8B
:102A400041D0052C02D9063CB4FBF5F6304B1A6890
:102A5000B2423FF491AE1E6001F094FCC67E06F0D7
:102A6000070614A83146FFF7A1F800F06FFD002813
:102A70003FF482AE274F284D3B7818AC33B395E82E
:102A80000F0084E80F00324614A92046FFF7D4F95E
:102A900094E80F0085E80F003046FFF793F8164BD7
:102AA0003870187000283FF467AE0120FEF700FE72
:102AB000154809F081FD14480A2109F005FE124865
:102AC00009F0C8FD58E64FF0FF36BFE72046FFF794
:102AD0006DF8D8E71D0400203E030020C802002046
:102AE000C7020020C602002004040020C502002006
:102AF000B9020020B402002021030020C8DF000832
:102B000024DC000808000020740300203A030020A1
:102B10000C00002020030020240300202B0740F19C
:102B20003B81236823F008032360039B8DF81F304B
:102B300001F028FCC37E0493814602F0B9FB0D46E8
:102B40008046FEF74FFD0446FEF7C8FB99F81A30A1
:102B500000EB4306944B1B78002B3FF40DAEDFF8DF
:102B60004CB29BF800A008AFBAF1000F50D0904BC8
:102B70000FCB87E80F008F4B1B782BB9BAF1000FF2
:102B800002D13846FFF712F8049B13F004030593B3
:102B900042D001F0E7FD0B903346224640462946DD
:102BA000FEF73BFB82460B46D4B164209D4208BF32
:102BB000D045A4FB000134D0824573EB01020FD352
:102BC000BAEB000063EB0101804575EB010207D30E
:102BD00010F1BE0C41F10002E04575EB020222D378
:102BE000039302F065FB039B5045994117D2BAEB62
:102BF00000040A235C432834012C38BF01246E48AA
:102C000009F0DAFC6C48214609F05EFD6A4857E796
:102C10003846FEF7CBFFAEE74FF0FF30BBE7292485
:102C2000EDE75046194600236422FDF711FBDFF85B
:102C30008CA186429EBF831BB3FBF4F303939AF8E7
:102C40000030012B05460CD15D4BDB6A03B1984780
:102C50005C4A002313705C4A8AF80030136001F06C
:102C6000D1FD9AF800304BB131462046FEF714FEF4
:102C700000287FF481ADFEF78BFE7DE518AB534A4B
:102C8000009312880DF11F0339464846FEF7BEFF38
:102C9000002842D1049B03F0070810A84146FEF724
:102CA00085FF00F053FC0028DED09BF8003014AF05
:102CB000002B3DD03E4B0FCB87E80F0014A84246B7
:102CC00010A9FFF7B9F814A80FC8394F87E80F000B
:102CD0004046FEF777FF374B8BF80000187000284E
:102CE000C2D097E80F000DF1300888E80F00059B6F
:102CF00013B301F037FD18AB344A00930F901288DC
:102D00000DF11F0341464846FEF780FF0028ABD077
:102D100098E80F0008AF87E80F00FEF743FA284F46
:102D200068B902F071F9FB6A002B9DD098479BE7C8
:102D30003846FEF73BFFC1E74FF0FF30DBE79DF879
:102D40001F80B8F1000FECD0404602F011F90028C6
:102D5000E7D0FEF747FC10B1B5FBF0F54543FEF7B1
:102D6000BDFA1B4B1B7805440BB9FEF7CFFA01F0F7
:102D70003FFD02238AF80030164B039A1A60FEF7D3
:102D8000F1FA214600222846FE6802F047F9B047D2
:102D9000BB6A11484146FDE525B0BDE8F04FFEF79E
:102DA00017BD25B0BDE8F08F3A03002020030020B6
:102DB0002403002021030020A40300201D04002080
:102DC000C8DF0008AB020020AC0200203E03002058
:102DD000B902002008000020F402002037B5444D5D
:102DE0002C78002C40F08180FEF742FA22462146E2
:102DF000404B0094404809F067FB224621463F4B78
:102E000000943F4809F060FB224621463D4B009468
:102E10003D4809F059FB224621463C4B00943C4872
:102E200009F052FB224621463A4B00943A4809F0F9
:102E30004BFB2246394B00944FF47A61384809F035
:102E400043FB2246374B00940A21374809F03CFBEC
:102E50002246364B00941421354809F035FB2246B2
:102E6000344B35490094354809F02EFB344B354836
:102E70001C70354B1C80354B1C70354B1C70354B12
:102E80001C60354B1C70354B1C70FEF78FFE344AAE
:102E90004FF0FF331360334A1360334B1C70334BD6
:102EA0001C70334B48221A70324B1C70324B1C7012
:102EB000324B1C70324B1C70324B1C60324B1C70FE
:102EC000324B1C70324B1C60324B1C70324B1C70EE
:102ED000324B1C70324B1C70324B1C7001232B7018
:102EE00003B0BDE83040FFF775B903B030BD00BF97
:102EF0001C04002089140008040400207114000838
:102F0000EC03002059140008D403002041140008E9
:102F1000BC03002029140008A40300201114000899
:102F20008C030020CD1600087403002089170008C8
:102F30005C030020F913000880EE360044030020F3
:102F40001D040020240300203E0300203A0300203B
:102F50003903002034030020210300202003002037
:102F60000C00002008000020BB020020BA02002054
:102F700004000020B8020020AA020020A9020020BC
:102F8000B9020020B4020020B1020020B0020020EB
:102F9000AC020020AB020020C6020020C5020020C7
:102FA000BD020020BC02002070B51D4E1D4C3578BE
:102FB00075B31D4809F000FB1C4BDB6A03B1984751
:102FC0001B4B00251D701B4B4FF0FF321A6001F0A8
:102FD00019FC2368357043F400532360FEF78CF925
:102FE0002368052143F4007341F288302360FEF723
:102FF00073FA38B9104B1870236843F48053236078
:10300000FEF734FDBDE870400021012009F086B9CB
:103010002368012043F400532360FFF757F9F1E7D9
:10302000C5020020400300208C030020C8DF0008F8
:103030001D04002008000020C602002038B51F48EB
:1030400009F0BAFA01F0E0FF1D4BDB6A03B19847C3
:103050001C4B00221A701C4B4FF0FF321A6001F01B
:10306000D1FB1A4A1A4B117809B9197879B10024A1
:103070001470184A1C70136843F480531360FEF7F1
:10308000F5FCBDE838400021012009F047B901F006
:1030900079F9054610B9FFF701F9F2E7FEF7A2FA50
:1030A0000446FEF71BF9A97E002CF4D000EB410189
:1030B0002046FEF7F1FB0028EDD0E2E78C0300206C
:1030C000C8DF00081D04002008000020C502002001
:1030D000C602002040030020F0B56C4F8BB00546BF
:1030E0000E4601F04FF93B78012B04461DD1684B89
:1030F000DB6A984700233B7001F084FB01AA31464C
:10310000284601F035FDA8B9FEF722FA68B9614BEF
:103110001B78013B042B06D8DFE803F00503050903
:103120009E00FEF7F7FCFEF7BFFE0BB0F0BDFEF70A
:1031300095F8F8E72146182201A809F003FC044697
:103140000028E1D1544E07A801F0FAFF336843F498
:103150008043014633604A2064232246E1FB030298
:10316000114602F0E1F809A8FEF70EF94B4A138860
:10317000013313804A4B1C7001F004F9074607A87D
:1031800001F0DEFF474B1B780546002B73D0464B02
:103190001B78632B31D8454A12784D2A01D0482A32
:1031A0002BD10A20B3FBF0F101F1300400FB113305
:1031B000E4B2303344EA0244DBB244EA03243A4640
:1031C00021462846FEF76CF9074603F027FC384AEB
:1031D0003848082104F051FC36482A46092104F0F9
:1031E0004CFC344822460A2104F047FC31483A4658
:1031F0000B2104F042FC304B1D60304B254F012564
:103200001D702F4B00241C702E4B1C702E4B1C70FD
:103210002E4B1C702E4B1C60FEF776FA2D4B1D704A
:103220002D4B1C703B78052B07D13368214643F4A6
:1032300080632846336009F071F8FEF735FE0021FF
:10324000012009F06BF83B78012B7FF46EAFFEF79D
:103250005BFAFEF7C5F868E70F4A114B00241C70B3
:10326000136843F400631360FEF700FC214601205D
:1032700009F054F859E79DF826409DF825302404BC
:1032800044EA03249DF824301C4398E71D040020E1
:10329000C8DF0008AB020020400300203E030020EE
:1032A000C6020020BB020020BA0200200400002059
:1032B0005953444EF8010020340300203B03002002
:1032C00039030020BC02002038030020B90200208E
:1032D000B40200203A0300202103002070B5164EEE
:1032E0003578012D26D1154B0024DB6A98473470C0
:1032F00001F088FA124B1B78042B18D0052B07D04D
:10330000022B01D1FEF706FCBDE87040FEF7CCBDF4
:103310000C4A0D4B1C70136843F400631360FEF7F6
:10332000A5FB21462846BDE8704008F0F7BFFDF731
:1033300095FFE9E770BD00BF1D040020C8DF00084D
:10334000AB02002040030020C602002070B5194DDA
:103350002E78012E2DD1184B0024DB6A98472C7053
:10336000164D01F04FFA2B78052B0ED1144A154B50
:103370001C70136843F400631360FEF777FB21466B
:103380003046BDE8704008F0C9BFFEF7E1F880B9EB
:103390002B78012B03D1BDE87040FEF785BD022BD1
:1033A00002D1FEF7B7FBF6E7042BF4D1FDF756FF89
:1033B000F1E770BD1D040020C8DF0008AB0200204B
:1033C00040030020C60200201FB50C4600230190D8
:1033D00001A91048CDE9023302F060FB10B10020D2
:1033E00004B010BD0B4802F0B9FC0028F7D1094821
:1033F000322102F0F5FA18B1064802F067FDEEE757
:10340000044802F047FB2080024802F05FFD0120E3
:10341000E6E700BF3002002080F001024FF4807127
:10342000014803F0E9BA00BF0004004813B58DF865
:10343000040001208DF80510FFF7EEFF3223022271
:1034400001A9064804F09DFD04460020FFF7E4FFB3
:10345000B4FA84F0400902B010BD00BF940100200E
:1034600037B560F07F008DF8070001200C46154647
:10347000FFF7D2FF0C48322301220DF1070104F0BF
:1034800080FD28B10020FFF7C7FF002003B030BD4A
:10349000054832232A46214605F03BF80028F1D1A1
:1034A000FFF7BAFF0120F1E794010020F0B50124F5
:1034B000871C30F81450631E30F81360B54203D2F5
:1034C00027F81360013BF7D20133013420F8135081
:1034D000A3B29942EDD88B1A9BB29A420AD21446F3
:1034E0000021A5B2AB4209D89B1A9BB2B1FBF3F005
:1034F00080B202E0490830F81100F0BD30F81450F5
:1035000001342944EDE770B500220446861C34F9E5
:10351000021F134630F91350A94203DA26F813505C
:10352000013BF7D201330132632A20F81310EED1A8
:1035300000F1260200239E3032F9021F82420B4422
:10354000FAD13C2293FBF2F000B270BD2DE9F04FAE
:103550000D46ADF51B7D0446002800F0C581BD4E2B
:103560001022002109F0FEF9B36D0BB9FDF75EF8EA
:10357000B94B93F85D300BB9FDF7B8F84FF0FF3356
:103580006FF4FE40C4E900036F074FF0000323818E
:10359000E36002D501F0E6F8E06000224FF48071AC
:1035A0004FF0904003F028FA0220FDF711FCB36DB4
:1035B0000BB9FDF73BF87368726BB3F5101F1BBFB7
:1035C0004FF41013736000230123072AB26B1EBF50
:1035D000072373630123072A10D00723B3639D4891
:1035E00002F01EFC9B4802F0FBF848B19B4B93F99C
:1035F000003013F1800F18BF6370A1E0002BEED1F3
:10360000944802F081FC06460028EFD10220FDF725
:10361000DFFB68AFDFF848A2B846B14636A950468E
:10362000ADF8D890FFF7D0FE0028DFD0BDF8D83035
:10363000A3F11002B2F57E6FD8D827F8023B012023
:103640000136FDF7C5FB052EE8D101223146404683
:10365000FFF72CFF834BB3F8AA7040F6E4435F43B7
:10366000B7FBF0F7A7F5E163B3F5E16FBED87E488D
:103670004146FFF7A9FE0028B8D00220FDF7A8FBBD
:1036800079484146FFF7A0FE0028AFD00220FDF7A1
:103690009FFB0026DFF8D0B1C146B24636A9584696
:1036A000ADF8D8A0FFF790FE00289FD0BDF8D83025
:1036B000A3F11002B2F57E6F98D829F8023B0220E0
:1036C0000136FDF785FB0A2EE8D10222314640463D
:1036D000FFF7ECFEA0F110039BB2B3F57E6F85D827
:1036E000604BB3F8C820B3F8A8108A4206D16FF037
:1036F0000903053B0A2293FBF2F316E007FB00F3F4
:1037000040F6E440B3FBF0F364205B1A521A4343E3
:1037100093FBF2F31E3303EB83035B009AB21BB2FD
:10372000002BE6DB531DB3FBF6F31BB203F13202B1
:1037300092B2962A3FF65AAF484A5BB26370137052
:103740004FF400714FF0904003F050F9421E504288
:10375000464B5041E907207018703BD500217F206F
:10376000FFF764FEB0B301210620FFF75FFE88B3C8
:103770000A200026FDF72CFB31467F208DF8A06142
:10378000FFF754FE30B3012268A93046FFF768FE08
:1037900000B39DF8A031EA2B1CD10DF1100836AF13
:1037A0000DF5D079BA46C34600217F20FFF73EFED3
:1037B00000285FD14FF6FF736380A3804FF0FF3086
:1037C000E08000217F20FFF731FE18B14121062063
:1037D000FFF72CFEAB0779D501224FF480714FF033
:1037E000904003F009F90A20FDF7F2FA68AE204F85
:1037F000DFF864900025B04600224FF4805138462F
:10380000ADF81020ADF8D82003F0F6F8322300937D
:1038100004AA36A90223484604F08EFC01228246FF
:103820004FF48051384603F0E7F8BAF1000F4AD15F
:10383000BDF810305BBA26F8023B28200135FDF7B1
:10384000C7FA322DD8D1052229464046FFF72EFE71
:103850003BE000BF30020020940100201100002056
:10386000002000B40075FF1F001000B01000002001
:1038700000040048062202A92D20FFF7F1FD0028D0
:1038800098D0BDF80810BDF80A20BDF80C3049BA30
:1038900052BA5BBA28F8021B27F8022B29F8023B20
:1038A00002200136FDF794FA642E7FF47DAF58466E
:1038B000FFF729FE60805046FFF725FEA08068A82C
:1038C000FFF721FE7CE74FF6FF70208100224FF4C6
:1038D00080714FF0904003F08FF8054802F0A0FA95
:1038E000044804F038FB01200DF51B7DBDE8F08F86
:1038F0003002002094010020044A1368002143F0A4
:1039000004030120136008F009BD00BF0405002076
:10391000044A1368002143F001030120136008F0FA
:10392000FDBC00BF04050020094B0A481B7810B5F8
:10393000002B0CBF4FF4F5740A2408F03DFE21461D
:10394000044808F0C1FEBDE81040024808F082BEFD
:1039500002050020C804002002464FF4005101482F
:1039600003F04AB800080048024610214FF090408A
:1039700003F042B810B5104C23684BB1FDF720FAA4
:103980002368C21A092A03D80A33181AFDF720FA45
:1039900001F00AFE094A00231370094A142013603B
:1039A000FDF716FA074B1B7823B1BDE81040064817
:1039B00001F092BE10BD00BFF804002001050020F8
:1039C000FC040020030500202BDC000808B50B4B8D
:1039D00018780B4B38B91870FFF7C6FFBDE80840E0
:1039E000084808F0E9BD187880F001001870FFF76A
:1039F000BBFFBDE80840FFF797BF00BF03050020ED
:103A000002050020C804002013B500242246184BEC
:103A100018490094184808F057FD2246174B0094A7
:103A20004FF4F571164808F04FFD22460A21154B58
:103A30000094154808F048FD01F0D4FD134B1C70AC
:103A4000134B1C70134B1C70134B1C70134B1C60DE
:103A5000134B1C60134B1C60134B20461C70FFF76C
:103A60007BFF204602B0BDE81040FFF77DBF00BFDE
:103A70001139000820BF0200E0040020CD39000801
:103A8000C8040020F9380008B00400200305002015
:103A9000020500200105002000050020FC04002094
:103AA000F8040020040500201E04002038B51C4B3B
:103AB000002814BF05461D461A4B1A78EAB901249E
:103AC0001C7000F095FE01F08DFD2046FFF744FFCD
:103AD000FDF776F9144B1860144B1C7008F012FDBA
:103AE000134B0A301860134808F066FD11480A218C
:103AF00008F0EAFD0F4808F0ADFD0F4B01201870EB
:103B0000FFF732FFFFF710FF0C4808F055FD29467C
:103B10000A4808F0D9FDBDE83840084808F09ABDC9
:103B200020BF020003050020F8040020010500204A
:103B3000FC040020B004002002050020E004002066
:103B400010B50346B0B10078A0B10B4C0B4A302140
:103B5000204608F093FE0A4A0A4B002184F82F10F1
:103B600001241C701368204643F00803136008F01A
:103B7000D5FB204610BD00BF1E04002030DC00082D
:103B80000405002000050020024B1B780BB1FFF755
:103B90008DBF70470305002037B50023019304460D
:103BA00018B90025284603B030BD0360084B1D78C6
:103BB000002DF6D0074808F0A1FC0028F1D00548F8
:103BC00001A908F0C7FC0028EBD1019B2360E9E7BD
:103BD00003050020E004002010B5114C2378F3B158
:103BE000104808F0E9FC104808F0E6FC0F4808F01F
:103BF000E3FC0020FFF7B8FE0020FFF7ADFE01F068
:103C0000F1FC0B4A002313700A4A237013700A4A0E
:103C100013600A4ABDE81040136000F0F3BD10BD08
:103C200003050020E0040020C8040020B0040020A8
:103C30000205002001050020FC040020F8040020FB
:103C4000014B1878704700BF03050020044A136831
:103C5000002143F002030120136008F05FBB00BFA6
:103C60000405002038B50D4D2B78B3B10C4C2378EA
:103C70009BB108F047FC0B4B1B68181A002801DDAC
:103C8000FDF7A6F8084808F097FC2B782BB12378AD
:103C90001BB1BDE83840FFF76DBE38BD03050020FD
:103CA00001050020FC040020B004002030B5374B93
:103CB0001C688DB0002C66D00022A1071A6008D0C5
:103CC000FFF78AFFFEF782FC0DB0BDE8304000F040
:103CD00047BF620707D52E4B1B7823B12D4B1B78AE
:103CE0000BB1FFF747FE23074DD52B4D2B78002B4B
:103CF00049D02A4C2A4A23463021684608F0BEFDA6
:103D000000232B7023709DF80030002B3BD0FFF771
:103D100063FF4FF49670FDF75BF82248FFF7C6FE8D
:103D2000FFF7A0FF4FF49660FDF752F81E4801F030
:103D3000D3FC7820FDF74CF81B4801F0CDFC78202F
:103D4000FDF746F8194A1A486B46302108F096FDEF
:103D5000174801F0C1FC7820FDF73AF8154A1648DB
:103D60006B46302108F08AFD134801F0B5FC78203D
:103D7000FDF72EF8FFF730FF4FF49670FDF728F8A7
:103D80000848FFF793FE0DB030BD00BF04050020CA
:103D90000305002001050020000500201E0400206E
:103DA00030DC000820BF02002BDC000833DC0008F8
:103DB0007E0400203FDC00084E040020FFF746BFD1
:103DC00004490346184613F8012B12B18A5C120706
:103DD000F8D4704715E1000810B50446FCF7DAF98D
:103DE000094922180020A24200D110BD12F8013C5E
:103DF000093BDBB2172BF8D821FA03F3DB07F4D524
:103E000002F8010DEFE700BF13008000014801F048
:103E100063BC00BF1FDC0008014801F05DBC00BFAF
:103E20004CDC000830B5E0B1164D013911F8013F06
:103E3000027804460130ABB9234614F8012B202A3E
:103E4000FAD0092AF8D03A2A07D10E48224613465A
:103E500001321978415C0907F9D41878B0FA80F07A
:103E6000400930BDAC5C04F00304022CEC5C04F0AF
:103E7000030408BF203A022C08BF203B9A42D5D049
:103E80000020EEE715E10008F0B504460B4D0020D8
:103E900003460A26225C72B1AF5C7F070BD503286C
:103EA00004D1FF2B94BF0B70002006E006FB032318
:103EB000303B0130EEE70028F3D1F0BD15E10008FA
:103EC000704710B500F094FA044618B9FFF7A4FF44
:103ED000204610BDFFF79AFFFFF7F2FFF8E708B59D
:103EE00000F006FBBDE80840FFF7EBBF704700009D
:103EF00070B50346DAB0002800F0BD80B04A8021DA
:103F00000AA808F0BBFC0AA8FFF766FF0AA8FFF79B
:103F100057FF0446002800F0AE8003783C2B40F0A9
:103F2000AA80FCF737F9022840F2A580204410F857
:103F3000013C3E2B40F09F80601CFFF741FF044690
:103F4000FFF74AFF2046FCF725F940B10138235C12
:103F50003E2B04D1002323542046FFF73DFF237856
:103F6000002B00F0888097492046FFF75BFF002870
:103F700060D000F007FA03AD0446034600F11806CE
:103F8000186859682A4603C20833B3421546F7D168
:103F900000238D4A8DF82430C02103AB2AA808F0F5
:103FA0006DFC2AA801F098FBA37E884A884E894DB3
:103FB000C0212AA808F062FC2AA801F08DFBE37E4C
:103FC000854A13F0010F0CBF33462B46C0212AA8A7
:103FD00008F054FC2AA801F07FFBE37E7F4A13F02F
:103FE000020F0CBF33462B46C0212AA808F046FC1E
:103FF0002AA801F071FBE37E794A13F0040F0CBF8D
:1040000033462B46C0212AA808F038FC2AA801F024
:1040100063FB94F82020A37F0192E27F0092C021ED
:10402000704A2AA808F02AFC2AA801F055FBFFF7DD
:10403000EDFE20E06C492046FCF7A2F820B16B4968
:104040002046FCF79DF840B930212AA801F03CFA3F
:104050002AA801F041FB6648E7E7664905222046A9
:1040600008F088FC48B9204601F080F990B3FFF7CA
:10407000CDFEFFF73BFF5AB070BD5F4906222046D8
:1040800008F078FC0646B8B906342046FCF782F8FA
:10409000431E172B05461DD8182231462AA808F0C2
:1040A00061FC2A4621462AA808F0A2FC2AA800F0B2
:1040B00003FAFFF706FFDEE750490722204608F023
:1040C00059FCF8B98DF80C0003A9E01DFFF7DCFEE0
:1040D000002802DCFFF7A0FECDE79DF80C40312C54
:1040E000F8D8204600F0FCF9FFF7EBFE0028C2D01C
:1040F000434A234610212AA808F0C0FB2AA8FFF74C
:104100001FFDB8E73F492046FFF78CFE38B100F0AD
:1041100039F9C07E40F00100FFF7E1FEABE73A4914
:104120002046FFF77FFE28B100F02CF9C07E00F09A
:10413000FE00F1E735492046FFF774FE28B100F094
:1041400021F9C07E40F00200E6E731492046FFF742
:1041500069FE28B100F016F9C07E00F0FD00DBE733
:104160002C492046FFF75EFE28B100F00BF9C07E17
:1041700040F00400D0E728492046FFF753FE28B15D
:1041800000F000F9C07E00F0FB00C5E723490822DB
:10419000204608F0EFFB002842D108348DF8A80033
:1041A0002AA92046FFF770FE002893DD215C4D29E7
:1041B00001D048298ED19DF8A80000F0A1F978E738
:1041C00030DC000854DC000861DC00086CDC00080E
:1041D000F5DC0008EEDC000878DC000881DC000873
:1041E0008ADC000895DC0008A6DC0008B1DC0008C9
:1041F0001CDC0008BDDC0008C3DC0008CADC0008C9
:10420000D2DC0008DBDC0008E2DC0008EADC0008A5
:10421000F1DC0008F9DC000802DD00080CDD000814
:1042200015492046FFF7FEFD40B1FEF713F90028BF
:104230007FF421AF114801F04FFA1CE710492046E6
:10424000FFF7F0FD28B1FEF761F800283FF442AF18
:10425000EDE60C490722204608F08CFB38B10A49EC
:104260000822204608F086FB00287FF433AFFFF7D2
:10427000CDFDFFF7A3FDFEE615DD000824DC0008F8
:104280001ADD000825DD00082DDD000830B5204BC3
:104290001A7E022A84BF02221A765A7E002A32D15E
:1042A00001225A769A7E312A84BF31229A76DA7EAA
:1042B00002F00702DA761A7F632A84BF63221A7734
:1042C0005A7F4D2A04D0482A1CBF4FF490429A834B
:1042D000DA8C5D7F83F82050092A9CBF42F20F726E
:1042E000DA84002283F8C7201A7F0A20B2FBF0F498
:1042F00000FB1422B4FBF0F100FB114130313032ED
:104300009977DA7730BD322ACCD93222C9E700BF9B
:104310000A050020184B70B5B3F8E040631E9BB24D
:104320004FF6FD72934294BFA4024FF4802404F12F
:10433000FF6404F5FF24114B22689A4201D000204B
:1043400070BDA388032BFAD1E588C82DF7D104F1FD
:1043500008064FF6FF722946304600F08DF9B4F892
:10436000D0308342EBD12A463146054808F040FB65
:10437000FFF78CFF0120E3E70075FF1F4643495517
:104380000A05002038B5164D297831BB154CBE22E0
:10439000204608F0E7FA144A116844F80A1C5168EC
:1043A000128924F8022C3222E27307226274482216
:1043B000E27443F23002A2824DF64852E28241F6A4
:1043C0008D522283AD22A27642F20F7244F8061C6F
:1043D000A283FFF79FFF01232B70044838BD00BF65
:1043E000080500201405002036DD00080A0500201D
:1043F00070B50023BAB0CDE90033CDE90233FFF741
:10440000C1FFFFF743FF284B284A2949CDE9042380
:104410004FF0FF34C82206A8CDE9384408F0E8FA86
:104420004FF6FF72C82106A800F026F9214BADF81F
:10443000E000ADF8E240B3F8E040631E9BB24FF6F7
:10444000FD72934294BFA4024FF4802402F0A8F8B6
:1044500070B902230193A4F50063DB0A0293694655
:10446000012301A8039302F02DF920B102F0AAF86C
:1044700000203AB070BD04F1FF6504F1006405F559
:10448000FF2504AEA4F5E564F6E8022329460120E1
:1044900002F0D2F80028E9D10835A542F4D102F0A3
:1044A00091F8FFF737FFE4E70300C800464349559A
:1044B0000A0500200075FF1F10B5182204460021D0
:1044C000064808F04FFA054B204604F1180250F850
:1044D000041B43F8041B9042F9D110BD0A050020CB
:1044E000024B312828BF3120987670470A050020FA
:1044F000024B00F00700D876704700BF0A05002085
:10450000632828BF63204D2930B503D048291CBF3C
:1045100048210020074B0A241877B0FBF4F204FB73
:10452000120002F13005303059779D77D87783F843
:10453000201030BD0A050020024A00231370024AF1
:104540001380704754060020D205002073B5002365
:10455000364C374D374E8DF807300DF1070001F01E
:10456000A3F850BB23784BB107F0CCFF044601F011
:10457000BFF8241A632C01D9FFF7DEFF00F0E4F83E
:104580008107044613D0FDF7A1FF80B9E20707D5E4
:10459000FFF756FB08B9FDF7D5FF2748FFF786FA66
:1045A000A30704D5FFF74CFB08B1FFF74FFBFFF75C
:1045B0007DFBFEF75BF802B070BD22789DF80730F6
:1045C000012A0AD0022A1DD06AB93C2BC5D1012389
:1045D0003C222B8032702370BFE73C2BF7D00D2B91
:1045E00001D00A2B02D1FFF7A7FFB6E710490A88CE
:1045F0007E2AF8D8501C08800E493E2B8B54ACD133
:104600000223E8E70D2BA8D00A2B0BD1084B1B88FF
:104610007E2BE8D807480022C254002BE3D0FFF7D6
:1046200067FCE0E73C2BD2D0DDE700BF540600205A
:10463000D2050020D405002020BF0200FFF77CBF78
:1046400008B500210B4A012007F024FFFFF79AFE6E
:1046500000F0E2FD00F0C7F800F028F800F076FF67
:10466000FFF7D2F9FEF7BAFBBDE8084000210120B0
:1046700007F054BE4D45000870B50346014441F2B1
:10468000210510468B4200D170BD13F8012B082480
:1046900080EA022006B2420090B2002E04F1FF32FE
:1046A000B8BF684012F0FF04F4D1EBE7044A0023DE
:1046B0001360044A1360044A1360044A136070478D
:1046C00064060020600600205C06002058060020DA
:1046D000B0F5805F08B50ED1174A13680133136037
:1046E000164A136843F0040313600021BDE8084034
:1046F000012007F013BEB0F5004F0CD107F002FF08
:104700000F4A1368C31AC72B14D910600B4A1368D9
:1047100043F00103E8E702280CD107F0F3FE094A51
:104720001368C31AC72B05D91060044A136843F0F5
:104730000203D9E708BD00BF600600206406002020
:104740005C06002058060020024B002218681A6000
:10475000704700BF64060020014B00221A607047BA
:1047600064060020014B1868704700BF60060020F7
:1047700000F08EBFFFF7ACBF4FF0B04382B0DA6CF1
:104780000243DA64DB6C03400193019B02B0704783
:104790007FB50023CDE90333059328B101910323AD
:1047A00001A9029302F002F807B05DF804FB70B5AE
:1047B00086B004460D4616460021142201A808F0D2
:1047C000D1F874B13246A9B2204602F015F900239F
:1047D000012201A92046CDE902230195049301F0AD
:1047E000E5FF06B070BD0121084607F005BC0000DA
:1047F000034A1368012101330846136007F0E6BB42
:1048000068060020054B1A6812B11A68013A1A604E
:10481000196811B9012007F0D9BB7047680600205C
:1048200070B500F02BFE7E4BDB6A03B1984700F0B9
:10483000EBFB7C487C4E01224FF4807102F0DCF8E7
:10484000784801224FF4805102F0D6F800224FF44C
:1048500080714FF0904002F0CFF8744800224FF47E
:10486000005102F0C9F8002210214FF0904002F0F0
:10487000C3F8002220214FF0904002F0BDF8002242
:1048800040214FF0904002F0B7F8002280214FF015
:10489000904002F0B1F8336843B1D6F8883013B9CC
:1048A000D6F88C3013B1604804F080FB604C23686C
:1048B0002BB194F85D3013B1204603F04BFF00F0AC
:1048C00091FE23682BB194F85D3013B1584803F082
:1048D00042FB584D2B6823B1AB6D13B1284601F054
:1048E0009FFA3368544A93427CD14FF0B042136E22
:1048F00023F4804313662368504A934240F0868035
:104900004FF0B042136E23F4805313662A684C4B69
:104910009A4208BF4FF0B0424FF0010002BF136E41
:1049200023F400731366FFF727FF0220FFF724FF2D
:104930000420FFF721FF01214FF09040FFF728FFEF
:1049400038484021FFF724FF36488021FFF720FF39
:1049500034484FF48071FFF71BFF32484FF4805109
:10496000FFF716FF4FF480714FF09040FFF710FFF4
:104970002E484FF40051FFF70BFF10214FF09040ED
:10498000FFF706FF20214FF09040FFF701FF402185
:104990004FF09040FFF7FCFE80214FF09040FFF772
:1049A000F7FE20483821FFF7F3FE01204FF4007195
:1049B000FFF7E2FE4FF09040FFF7EAFEFFF73EFE02
:1049C000FFF7CAFE00F020FEFCF70EFB1D4B012294
:1049D000DA600222DA604FF48052DA604FF400426B
:1049E000DA6070BD184A934206D14FF0B042936D21
:1049F00023F4003393657EE7144A934201BF4FF0DE
:104A0000B042D36D23F00103D36574E7104A93429B
:104A100001BF4FF0B042936D23F48043936575E777
:104A2000C8DF000800040048F40000200008004827
:104A30009401002030020020003801400030014085
:104A4000002401400008005800440040008000405D
:104A50000038004070B5012086B0FFF78DFE0220BF
:104A6000FFF78AFE04200024FFF786FE01254FF49D
:104A700000730DEB00014FF09040CDE90134CDE91A
:104A80000444039501F092FE4FF4881301A94FF0FE
:104A90009040CDE902354FF48056CDE904440195AC
:104AA00001F084FE4FF4041301A94FF09040CDE9CA
:104AB0000163CDE90444039501F078FE26482A46B7
:104AC0004FF48071FFF773FE23482A463146FFF703
:104AD0006EFE22464FF480714FF09040FFF767FE64
:104AE0001E4822464FF40051FFF761FE2246102176
:104AF0004FF09040FFF75BFE224620214FF09040A0
:104B0000FFF755FE224640214FF09040FFF74FFE41
:104B1000224680214FF09040FFF749FE00F074FAE2
:104B20002846FFF729FE4FF400414FF0904001F076
:104B30005DFF18B94FF40040FFF7CAFD02214FF0A6
:104B4000904001F053FF28B9022006B0BDE8704044
:104B5000FFF7BEBD06B070BD000400480008004865
:104B6000024B1B680BB907F05DBA7047680600205E
:104B70002DE9F0410F461446054610B90020BDE866
:104B8000F081002AFAD00A29F8D90378F82B2AD024
:104B9000222FF3D94FF6FF7221212846B5F8216064
:104BA000FFF76AFDB042E9D12B46224605F1180114
:104BB00053F8040B42F8040B8B42F9D12B7E03F51A
:104BC000FA6323836B7EA376AB7EE376EB7E23775B
:104BD0002B7F63776B7FA3770023E377EB8B2384B3
:104BE00095F8203045E090F80180B8F1180FCFD843
:104BF00008F10B039942CBD102394FF6FF72465AA6
:104C0000FFF73AFDB042C3D118220021204607F039
:104C1000A9FEAE1CB8F1000F05D031464246204631
:104C200007F0E6FE4644337803F5FA63238373788E
:104C3000A376B378E376F378237733796377737960
:104C4000A3770023E377B27902F07F03632B9FD829
:104C50000A20B3FBF0F100FB1133303312F0800F68
:104C600001F1300584F8213084F820500CBF4D2329
:104C7000482384F82230012081E72DE9F8430E46CD
:104C8000054600284CD0002900F0A580884618F879
:104C9000193B312B46D932462B4612F8011B03F83B
:104CA000011B52F8041B43F8041B4245F9D1737EE3
:104CB0006B76B37EAB76B38BEB761B0A2B77F38BDD
:104CC0006B771B0AAB77338CEB771B0A85F82030A8
:104CD000738C85F821301B0A85F82230B38C85F857
:104CE00023301B0A85F82430B36A85F825301A0A68
:104CF00085F826201A0C1B0E85F8272085F8283009
:104D000096F82C3085F829304FF6FF722A21284674
:104D1000FFF7B2FC85F82A00000A85F82B002C204A
:104D2000BDE8F8834246182712F8011D19B9013F62
:104D300017F0FF07F8D196F82C9063F03F032B7023
:104D400009F0070343EAC7036B70AC1C2FB1204680
:104D50003A46711C07F04CFE3C44737E2370B37ED0
:104D60006370B38BA37019F0010F4FEA1323E37044
:104D700023D1043419F0020F04D0B38C23701B0A22
:104D80006370023419F0040F08D0B36A23701A0A52
:104D900062701A0C1B0EA270E3700434611B4FF694
:104DA000FF722846FFF768FC2070000A607002342A
:104DB000641B14F0FF00B3D16DE7F38B23711B0A62
:104DC0006371338CA3711B0AE371738C23721B0A0A
:104DD00063720A34CEE70846A2E72DE9F74F88460A
:104DE0001546044618B9002003B0BDE8F08F002A2C
:104DF000F9D00729F7D990F800B00BF0C003C02B09
:104E000034D0B8F12B0FEED94FF6FF722A2120468D
:104E1000668DFFF731FCB042E5D122462B4612F8F1
:104E2000011B03F8011B04F1190152F8040B43F8AC
:104E3000040B8A42F9D1637E6B76A37EAB76B4F81D
:104E40001B30AB83B4F81D30EB83B4F81F302B84D8
:104E5000B4F821306B84B4F82330AB84D4F8253017
:104E6000AB6294F8293085F82C3058E00BF03F0BFA
:104E7000BBF1310FC5D84678C72E4FEAD60AC0D845
:104E800016F0010714BF0AF10E030AF1080316F029
:104E900002091CBF02339BB216F004021CBF04338C
:104EA0009BB299420092ACD102394FF6FF72435A3D
:104EB0000193FFF7E1FB019B9842A2D16B1C2F22CB
:104EC0000021184607F04EFD06F007064FF0FF32AE
:104ED00085F800B085F82C60AA620234BAF1000FA0
:104EE00004D02146524607F083FD544423786B7664
:104EF0006378AB766388AB839FB1A388EB83E38849
:104F00002B8427890A346F84B9F1000F01D034F85B
:104F1000029B009BA5F824900BB12368AB62012093
:104F200062E70434EF832F84EDE7000070B50E4C88
:104F30000546E06898B1E06A88B10C4E33781BB141
:104F400007F000F800233370A3680BB101209847E5
:104F5000A36D0BB100209847636D0BB9012070BDA4
:104F6000294601209847F9E7C8DF00081200002011
:104F700030B5114B9A6A8BB01AB9002420460BB099
:104F800030BDDD69002DF8D0FFF7D0FF04460028C2
:104F9000F3D000234FF47A620120CDE907320822D2
:104FA000CDE901020B220092CDE90533CDE90330B2
:104FB0001A461621A847E1E7C8DF000870B5114B73
:104FC0005A6B8AB005461AB9002420460AB070BD53
:104FD0009E69002EF8D0FFF7A9FF04460028F3D001
:104FE000002101230822CDE90012CDE90811CDE905
:104FF0000611CDE90453CDE902110B221846B04742
:10500000E3E700BFC8DF0008014B01221A707047B8
:105010001200002000487047E048FF36002908BF12
:105020004FF461610623B0FBF1F00244B2FBF3F1EF
:1050300003FB1122014B53F82200704748DF0008A0
:105040000023C3800160828003817047C388828807
:1050500001339BB29A4298BF0023028992B29A42CE
:1050600018BFC28810B51DBF92B20468A1540020B9
:105070001CBFC380012010BD0289C38892B29BB2BD
:105080009A420ED0038902689BB2D35C0B700389ED
:10509000828801339BB29A4298BF0023038101208A
:1050A000704700207047830711D16422B0FBF2F3F0
:1050B00002FB13039BB263B94FF4C873B0FBF3F266
:1050C00003FB120080B2B0FA80F040097047002064
:1050D000704701207047000070B50D4C05460E4624
:1050E00001F09CFC20460B4A042102F0C6FC2A4633
:1050F0002046052102F0C1FC32462046062102F07E
:10510000BCFCEA4320460721BDE8704002F0B5BC74
:10511000F80100204D544955022908B504D1FFF784
:10512000C2FF1C30C0B208BD4B1E0B2B9BBF034BF4
:105130005B181E2013F8010CF5E700BF60DF0008C4
:10514000F8B50688B6F5FC6F054638BF4FF4FC6627
:105150004FF4FC610024B14216D1AF7801218F4297
:105160001BD8EB780BB1013B1C446B792A790E48B4
:10517000C3EB03134FF461619B0001FB0233AA7977
:10518000134400FB0430F8BD0846FFF78CFF04F21F
:105190006D140131044489B2DDE73046FFF7BCFFEE
:1051A00001310444C9B2DAE780510100194B70B5EE
:1051B000B0FBF3F44FF4616203FB1400B0FBF2F3B5
:1051C00002FB13003C220B71B0FBF2F302FB130055
:1051D0000D464B7188714FF4FC663046FFF763FF54
:1051E00000F26D10844203D30136241AB6B2F4E7FC
:1051F0002E8001213046FFF78FFF844206D3013114
:10520000C9B20D29A4EB0004F4D10C210134A9701A
:10521000EC7070BD805101002DE9F04707F072F984
:10522000DFF874A01D4FDFF87890DFF87880CAF8B7
:1052300000000023002200261B4889F8006004219A
:10524000C7E90023C8F8006002F01EFC174B984223
:1052500020D10521144802F017FC07210546124809
:1052600002F012FCEB43984214D10F48062102F0E1
:105270000BFCC4B2632C0DD807F044F96423E5FBA2
:105280000346C7E900460123CAF8000089F8003048
:10529000C8F80050BDE8F0877006002078060020AE
:1052A0006C06002080060020F80100204D5449556E
:1052B000F8B507F027F9114B114A1B68D2E90045F0
:1052C000C01A0A23B0FBF3F00E4B1B78041945F10A
:1052D00000057BB16422002320462946FAF7B8FF77
:1052E000094F3B680646F31A3B2B03D9D1B2FFF7AF
:1052F000F3FE3E6020462946F8BD00BF7006002040
:10530000780600206C0600208006002008B5FFF714
:10531000CFFF64220023FAF79BFF08BD014B1878EA
:10532000704700BF6C06002038B50C46054607F0F4
:10533000E9F80A4B18600A4BC3E90054094B0122F3
:105340001A702146642200232846FAF781FFD1B261
:105350000446FFF7C1FE044B1C6038BD70060020F8
:10536000780600206C060020800600202DE9F0431E
:1053700091B000233E490D930522CDE90E33CDE9CE
:105380000733CDE90933CDE90B33044607F0F2FAD0
:1053900000B90534A04614F8013B202BFAD0092BA4
:1053A000F8D00DAB0CAF0BAE0AAD09AC049331498C
:1053B000039702960195009408AB07AA404607F0B0
:1053C00093FA052850DC00230D93CDE90267CDE95F
:1053D0000045294908AB07AA404607F085FA062888
:1053E0003ED100230D93079B002B39DB08994A1E01
:1053F0000B2A35D8099D002D32DDDDF82880B8F163
:10540000170F2DD80B9F3B2F2AD80C9E3B2E27D849
:105410000D9C632C24D8632BDCBF03F5FA63079340
:10542000BDF81C90C9B24846FFF776FEA84217D3D4
:105430000EA88DF83A10ADF838908DF83B508DF8E5
:105440003C808DF83D708DF83E60FFF779FE642357
:10545000E117E0FB03412046FFF766FF012000E073
:10546000002011B0BDE8F0830628BCD1B9E700BF29
:10547000BDDC000841DD00085DDD00080E4B1B7837
:1054800010B5BBB107F03EF80C4B0D4A1B68C01AB3
:105490000A23B0FBF3F0D2E90031C01841F100015A
:1054A00064220023FAF7D4FED1B20446FFF714FEBB
:1054B000044B1C6010BD00BF6C060020700600206D
:1054C000780600208006002070B588B004460D469E
:1054D000FFF7EEFE64220023FAF7BAFE06A916468D
:1054E000FFF764FEBDF8183005966422B3FBF2F1B5
:1054F00002FB11339DF81E2004929DF81D2003929B
:105500009DF81C2002929DF81B2001929DF81A2004
:1055100000929BB2034A2946204607F0AFF908B033
:1055200070BD00BF75DD0008054BD3F888202AB98F
:10553000D3F88C00003818BF012070470120704755
:10554000F40000200021012006F0E8BE07B508495C
:1055500008484FF48072FFF773FD0022064B00925B
:105560006421064806F0B0FF03B05DF804FB00BFFD
:10557000AC060020A0060020455500088806002043
:1055800008B5FEF76FFBFFF7CFFF08B9FBF7E0F8B0
:10559000BDE8084002490348012204F0C7BC00BF2F
:1055A000AC070020F400002008B5FFF7BDFF10B1E4
:1055B000084803F099FCFBF7CBF8074907484FF47C
:1055C0008072FFF73DFDBDE8084005490148012212
:1055D00004F0ACBCF4000020AC060020A0060020C3
:1055E000AC07002008B5064806F0E6FFFFF79CFF71
:1055F00020B1BDE80840034803F076BC08BD00BFF9
:1056000088060020F400002008B5064806F0D4FF04
:105610004FF4807204490548FFF712FD044B002245
:105620001A6008BD88060020AC060020A0060020F5
:105630008406002038B5114B984204461DD1104D08
:1056400010482978FFF702FD01222946204604F080
:105650006DFC06F057FF0C4B18600C4806F0ACFFD1
:1056600064210A4807F030F8084806F0F3FFBDE867
:1056700038400021012006F051BE38BDF400002062
:10568000AC070020A0060020840600208806002029
:10569000034B834203D10349012204F047BC704706
:1056A000F4000020AC07002001460148FFF7E4BCED
:1056B000A006002070B50D46044650B149B1FFF771
:1056C0005FFF2A4621460348BDE87040642304F08A
:1056D000BDBA70BDF400002010B5044638B1FAF729
:1056E00059FD81B22046BDE81040FFF7E3BF10BD71
:1056F000014B1868704700BF8406002038B5104C75
:10570000237805460BB9012038BD01F0FDFA227857
:105710004FF47A73B3FBF2F3B0FBF3F000F008FD43
:1057200004460028EFD10F2DEDD8024629464FF050
:10573000FF3000F0ABFC034B20461D60E4E700BFE8
:10574000130000201400002010B5032000F08CFC92
:1057500001F0DAFA064B18600F20FFF7CFFF04467E
:1057600018B9FBF75BF9204610BD0124FBE700BF29
:1057700000000020034A044B11681B780B4413609F
:10578000704700BFB0070020130000204FF0E02258
:10579000136923F00203136170474FF0E02213698D
:1057A00043F0020313617047024A536823F0010378
:1057B00053607047002004E0024A536823F002035C
:1057C00053607047002004E0024A536823F004034A
:1057D00053607047002004E08068C0F38000704789
:1057E000F7B5002301930446002800F0E780856D9B
:1057F00025B9FBF715F9E56584F8545023689A68D4
:10580000D00040F19F809A68D10000F1B280A26D73
:1058100042F01002A265E26D42F00102E26501254C
:105820001846FFF7D9FFA26D02F01002024340F0C4
:10583000C780A26D206922F4817242F00202A26543
:105840009A68D2075BD4226BA67E94F82CC0003AEB
:1058500018BF01221703D4E902120A43217E42EA4B
:105860008132617E42EAC13242EA4632002842EA8F
:105870004C02B4BF20F000414FF400113A430A43F8
:1058800094F82010012903D1002E74D142F4803203
:10589000616A21B1A66A01F4E07131430A43DE680E
:1058A0004A4931401143D96094F83C206168E66C64
:1058B00001F0404C012A4CEA060609D1D4E9102730
:1058C0003A433243A66C324342EA0C0242F00106EC
:1058D0001F693F4A3A4032431A6121F00042B2F157
:1058E000804F0CD0B1F1004F09D03A4ED6F80827BE
:1058F00001F4701122F470120A43C6F808275A699D
:10590000666BA16B22F0070232435A615A6922F09A
:10591000700242EA01125A61002835D19A6A62F097
:105920000F029A625B6903F007039E423CD1002399
:10593000E365A36D23F0030343F00103A365284649
:1059400003B0F0BD9A68244922F0104222F01702F9
:1059500042F080529A60214A1268B2FBF1F20132A1
:1059600052000192019A002A3FF44DAF019A013A88
:10597000F7E7002554E7A16D41F02001A165E16D35
:1059800041F00101E16583E7B0F5001FCAD19A6AD1
:10599000E269013A92006FF00F0102F01C0201FA75
:1059A00002F2216E0A43BCE7A36D23F0120343F019
:1059B0001003A365E36D43F00103E3650125BEE732
:1059C000A36D43F01003A365F8E700BF0102DEFFFB
:1059D00002FCFF1F00200140400D030000000020DA
:1059E000F8B54569082D04460E460AD00368DB6801
:1059F000D80705D5A36D43F02003A3650120F8BDAA
:105A00000425FBF7DDF9074623681A682A4220D0EF
:105A1000A26D42F40072A265DA6812F4406F14D1EC
:105A2000A27E92B91A6812070FD51846FFF7D4FE66
:105A300020BB5A6822F00C025A60A26D22F48072D8
:105A400022F0010242F00102A265227EFAB100209A
:105A5000D5E7711CD9D0FBF7B3F9C01BB04201D810
:105A6000002ED1D123681B682B40CDD1A26D84F8C4
:105A7000543042F00402A2650320C0E7A26D42F058
:105A80002002A265E26D42F00102E265DDE70C2230
:105A90001A60DCE70368186C70470000F7B5002354
:105AA000019390F85430012B044600F0C080056843
:105AB0000269012380F854302846FFF78DFE002844
:105AC00040F0AF80D1E90030022822F004027ED0FD
:105AD000B2F1004FC3F3110E35D1AA6A42EA0E02A9
